{
  "contractName": "Auth",
  "abi": [
    {
      "inputs": [],
      "stateMutability": "nonpayable",
      "type": "constructor"
    },
    {
      "anonymous": false,
      "inputs": [
        {
          "indexed": false,
          "internalType": "string",
          "name": "site",
          "type": "string"
        },
        {
          "indexed": false,
          "internalType": "string",
          "name": "oldLogin",
          "type": "string"
        },
        {
          "indexed": false,
          "internalType": "string",
          "name": "newLogin",
          "type": "string"
        }
      ],
      "name": "ChangeLogin",
      "type": "event"
    },
    {
      "anonymous": false,
      "inputs": [
        {
          "indexed": false,
          "internalType": "string",
          "name": "site",
          "type": "string"
        },
        {
          "indexed": false,
          "internalType": "string",
          "name": "login",
          "type": "string"
        },
        {
          "indexed": false,
          "internalType": "bytes",
          "name": "newPassword",
          "type": "bytes"
        }
      ],
      "name": "ChangePassword",
      "type": "event"
    },
    {
      "anonymous": false,
      "inputs": [
        {
          "indexed": false,
          "internalType": "string",
          "name": "oldSiteName",
          "type": "string"
        },
        {
          "indexed": false,
          "internalType": "string",
          "name": "newSiteName",
          "type": "string"
        }
      ],
      "name": "ChangeSite",
      "type": "event"
    },
    {
      "anonymous": false,
      "inputs": [
        {
          "indexed": false,
          "internalType": "string",
          "name": "site",
          "type": "string"
        },
        {
          "indexed": false,
          "internalType": "string",
          "name": "login",
          "type": "string"
        }
      ],
      "name": "DeleteAccount",
      "type": "event"
    },
    {
      "anonymous": false,
      "inputs": [
        {
          "indexed": false,
          "internalType": "string",
          "name": "site",
          "type": "string"
        }
      ],
      "name": "DeleteSite",
      "type": "event"
    },
    {
      "anonymous": false,
      "inputs": [
        {
          "indexed": false,
          "internalType": "string",
          "name": "site",
          "type": "string"
        },
        {
          "indexed": false,
          "internalType": "string",
          "name": "login",
          "type": "string"
        },
        {
          "indexed": false,
          "internalType": "bytes",
          "name": "password",
          "type": "bytes"
        }
      ],
      "name": "NewUser",
      "type": "event"
    },
    {
      "inputs": [
        {
          "internalType": "bytes32",
          "name": "message",
          "type": "bytes32"
        },
        {
          "internalType": "uint8",
          "name": "v",
          "type": "uint8"
        },
        {
          "internalType": "bytes32",
          "name": "r",
          "type": "bytes32"
        },
        {
          "internalType": "bytes32",
          "name": "s",
          "type": "bytes32"
        },
        {
          "internalType": "string",
          "name": "oldSiteName",
          "type": "string"
        },
        {
          "internalType": "string",
          "name": "newSiteName",
          "type": "string"
        }
      ],
      "name": "changeSiteName",
      "outputs": [],
      "stateMutability": "nonpayable",
      "type": "function"
    },
    {
      "inputs": [
        {
          "internalType": "bytes32",
          "name": "message",
          "type": "bytes32"
        },
        {
          "internalType": "uint8",
          "name": "v",
          "type": "uint8"
        },
        {
          "internalType": "bytes32",
          "name": "r",
          "type": "bytes32"
        },
        {
          "internalType": "bytes32",
          "name": "s",
          "type": "bytes32"
        },
        {
          "internalType": "string",
          "name": "site",
          "type": "string"
        }
      ],
      "name": "deleteSiteInfo",
      "outputs": [],
      "stateMutability": "nonpayable",
      "type": "function"
    },
    {
      "inputs": [
        {
          "internalType": "bytes32",
          "name": "message",
          "type": "bytes32"
        },
        {
          "internalType": "uint8",
          "name": "v",
          "type": "uint8"
        },
        {
          "internalType": "bytes32",
          "name": "r",
          "type": "bytes32"
        },
        {
          "internalType": "bytes32",
          "name": "s",
          "type": "bytes32"
        },
        {
          "internalType": "string",
          "name": "site",
          "type": "string"
        },
        {
          "internalType": "string",
          "name": "login",
          "type": "string"
        }
      ],
      "name": "deleteAccountInfo",
      "outputs": [],
      "stateMutability": "nonpayable",
      "type": "function"
    },
    {
      "inputs": [
        {
          "internalType": "bytes32",
          "name": "message",
          "type": "bytes32"
        },
        {
          "internalType": "uint8",
          "name": "v",
          "type": "uint8"
        },
        {
          "internalType": "bytes32",
          "name": "r",
          "type": "bytes32"
        },
        {
          "internalType": "bytes32",
          "name": "s",
          "type": "bytes32"
        },
        {
          "internalType": "string",
          "name": "site",
          "type": "string"
        },
        {
          "internalType": "string",
          "name": "oldLogin",
          "type": "string"
        },
        {
          "internalType": "string",
          "name": "newLogin",
          "type": "string"
        }
      ],
      "name": "changeSiteLogin",
      "outputs": [],
      "stateMutability": "nonpayable",
      "type": "function"
    },
    {
      "inputs": [
        {
          "internalType": "bytes32",
          "name": "message",
          "type": "bytes32"
        },
        {
          "internalType": "uint8",
          "name": "v",
          "type": "uint8"
        },
        {
          "internalType": "bytes32",
          "name": "r",
          "type": "bytes32"
        },
        {
          "internalType": "bytes32",
          "name": "s",
          "type": "bytes32"
        },
        {
          "internalType": "string",
          "name": "site",
          "type": "string"
        },
        {
          "internalType": "string",
          "name": "login",
          "type": "string"
        },
        {
          "internalType": "bytes",
          "name": "newPassword",
          "type": "bytes"
        }
      ],
      "name": "changeSitePassword",
      "outputs": [],
      "stateMutability": "nonpayable",
      "type": "function"
    },
    {
      "inputs": [
        {
          "internalType": "bytes32",
          "name": "message",
          "type": "bytes32"
        },
        {
          "internalType": "uint8",
          "name": "v",
          "type": "uint8"
        },
        {
          "internalType": "bytes32",
          "name": "r",
          "type": "bytes32"
        },
        {
          "internalType": "bytes32",
          "name": "s",
          "type": "bytes32"
        },
        {
          "internalType": "string",
          "name": "site",
          "type": "string"
        },
        {
          "internalType": "string",
          "name": "_login",
          "type": "string"
        },
        {
          "internalType": "bytes",
          "name": "_password",
          "type": "bytes"
        }
      ],
      "name": "addUserToSite",
      "outputs": [],
      "stateMutability": "nonpayable",
      "type": "function"
    },
    {
      "inputs": [
        {
          "internalType": "bytes32",
          "name": "message",
          "type": "bytes32"
        },
        {
          "internalType": "uint8",
          "name": "v",
          "type": "uint8"
        },
        {
          "internalType": "bytes32",
          "name": "r",
          "type": "bytes32"
        },
        {
          "internalType": "bytes32",
          "name": "s",
          "type": "bytes32"
        }
      ],
      "name": "getSites",
      "outputs": [
        {
          "internalType": "string[]",
          "name": "",
          "type": "string[]"
        }
      ],
      "stateMutability": "view",
      "type": "function"
    },
    {
      "inputs": [
        {
          "internalType": "bytes32",
          "name": "message",
          "type": "bytes32"
        },
        {
          "internalType": "uint8",
          "name": "v",
          "type": "uint8"
        },
        {
          "internalType": "bytes32",
          "name": "r",
          "type": "bytes32"
        },
        {
          "internalType": "bytes32",
          "name": "s",
          "type": "bytes32"
        },
        {
          "internalType": "string",
          "name": "site",
          "type": "string"
        }
      ],
      "name": "getLogins",
      "outputs": [
        {
          "components": [
            {
              "internalType": "string",
              "name": "login",
              "type": "string"
            },
            {
              "internalType": "bytes",
              "name": "password",
              "type": "bytes"
            }
          ],
          "internalType": "struct Auth.User[]",
          "name": "",
          "type": "tuple[]"
        }
      ],
      "stateMutability": "view",
      "type": "function"
    }
  ],
  "bytecode": "0x608060405234801561000f575f80fd5b50335f806101000a81548173ffffffffffffffffffffffffffffffffffffffff021916908373ffffffffffffffffffffffffffffffffffffffff1602179055506138928061005c5f395ff3fe608060405234801561000f575f80fd5b5060043610610086575f3560e01c8063700fc60f11610059578063700fc60f146100fa5780638689bad9146101165780639c63e2ab14610132578063b5c5d9491461016257610086565b806308e253421461008a5780632ead3a96146100a657806358f6bae7146100c25780636768a9b1146100de575b5f80fd5b6100a4600480360381019061009f9190612592565b610192565b005b6100c060048036038101906100bb9190612653565b6107c0565b005b6100dc60048036038101906100d791906127e2565b610b0c565b005b6100f860048036038101906100f391906128d3565b610e59565b005b610114600480360381019061010f9190612592565b6115a1565b005b610130600480360381019061012b91906127e2565b611a80565b005b61014c60048036038101906101479190612966565b611da9565b6040516101599190612aff565b60405180910390f35b61017c600480360381019061017791906128d3565b611f3e565b6040516101899190612c6d565b60405180910390f35b858585856101a284848484612197565b73ffffffffffffffffffffffffffffffffffffffff163373ffffffffffffffffffffffffffffffffffffffff161461020f576040517f08c379a000000000000000000000000000000000000000000000000000000000815260040161020690612d0d565b60405180910390fd5b60048660405161021f9190612d65565b90815260200160405180910390205f9054906101000a900460ff16610279576040517f08c379a000000000000000000000000000000000000000000000000000000000815260040161027090612deb565b60405180910390fd5b60015f3373ffffffffffffffffffffffffffffffffffffffff1673ffffffffffffffffffffffffffffffffffffffff1681526020019081526020015f20866040516102c49190612d65565b908152602001604051809103902060015f3373ffffffffffffffffffffffffffffffffffffffff1673ffffffffffffffffffffffffffffffffffffffff1681526020019081526020015f208660405161031d9190612d65565b9081526020016040518091039020908054610339929190612276565b5060015f3373ffffffffffffffffffffffffffffffffffffffff1673ffffffffffffffffffffffffffffffffffffffff1681526020019081526020015f20866040516103859190612d65565b90815260200160405180910390205f61039e91906122f2565b5f5b60025f3373ffffffffffffffffffffffffffffffffffffffff1673ffffffffffffffffffffffffffffffffffffffff1681526020019081526020015f208054905081101561055a576104d88760025f3373ffffffffffffffffffffffffffffffffffffffff1673ffffffffffffffffffffffffffffffffffffffff1681526020019081526020015f20838154811061043b5761043a612e09565b5b905f5260205f2001805461044e90612e63565b80601f016020809104026020016040519081016040528092919081815260200182805461047a90612e63565b80156104c55780601f1061049c576101008083540402835291602001916104c5565b820191905f5260205f20905b8154815290600101906020018083116104a857829003601f168201915b505050505061221e90919063ffffffff16565b15610547578560025f3373ffffffffffffffffffffffffffffffffffffffff1673ffffffffffffffffffffffffffffffffffffffff1681526020019081526020015f20828154811061052d5761052c612e09565b5b905f5260205f200190816105419190613039565b5061055a565b808061055290613135565b9150506103a0565b505f5b60035f3373ffffffffffffffffffffffffffffffffffffffff1673ffffffffffffffffffffffffffffffffffffffff1681526020019081526020015f2080549050811015610717576106958760035f3373ffffffffffffffffffffffffffffffffffffffff1673ffffffffffffffffffffffffffffffffffffffff1681526020019081526020015f2083815481106105f8576105f7612e09565b5b905f5260205f2001805461060b90612e63565b80601f016020809104026020016040519081016040528092919081815260200182805461063790612e63565b80156106825780601f1061065957610100808354040283529160200191610682565b820191905f5260205f20905b81548152906001019060200180831161066557829003601f168201915b505050505061221e90919063ffffffff16565b15610704578560035f3373ffffffffffffffffffffffffffffffffffffffff1673ffffffffffffffffffffffffffffffffffffffff1681526020019081526020015f2082815481106106ea576106e9612e09565b5b905f5260205f200190816106fe9190613039565b50610717565b808061070f90613135565b91505061055d565b506004866040516107289190612d65565b90815260200160405180910390205f6101000a81549060ff021916905560016004866040516107579190612d65565b90815260200160405180910390205f6101000a81548160ff0219169083151502179055507f4b61775040847b975b4317bc96f8be67f6dbd3f570e439304acdadb0398fe08186866040516107ac9291906131b4565b60405180910390a150505050505050505050565b868686866107d084848484612197565b73ffffffffffffffffffffffffffffffffffffffff163373ffffffffffffffffffffffffffffffffffffffff161461083d576040517f08c379a000000000000000000000000000000000000000000000000000000000815260040161083490612d0d565b60405180910390fd5b60048760405161084d9190612d65565b90815260200160405180910390205f9054906101000a900460ff166108a7576040517f08c379a000000000000000000000000000000000000000000000000000000000815260040161089e90612deb565b60405180910390fd5b5f5b60015f3373ffffffffffffffffffffffffffffffffffffffff1673ffffffffffffffffffffffffffffffffffffffff1681526020019081526020015f20886040516108f49190612d65565b908152602001604051809103902080549050811015610ac357610a1f8760015f3373ffffffffffffffffffffffffffffffffffffffff1673ffffffffffffffffffffffffffffffffffffffff1681526020019081526020015f208a60405161095c9190612d65565b9081526020016040518091039020838154811061097c5761097b612e09565b5b905f5260205f2090600202015f01805461099590612e63565b80601f01602080910402602001604051908101604052809291908181526020018280546109c190612e63565b8015610a0c5780601f106109e357610100808354040283529160200191610a0c565b820191905f5260205f20905b8154815290600101906020018083116109ef57829003601f168201915b505050505061221e90919063ffffffff16565b15610ab0578560015f3373ffffffffffffffffffffffffffffffffffffffff1673ffffffffffffffffffffffffffffffffffffffff1681526020019081526020015f2089604051610a709190612d65565b90815260200160405180910390208281548110610a9057610a8f612e09565b5b905f5260205f2090600202015f019081610aaa9190613039565b50610ac3565b8080610abb90613135565b9150506108a9565b507feaf50412a25915481c66b73d6ba60c73a351952e36ac719301bab18794be8d46878787604051610af7939291906131e9565b60405180910390a15050505050505050505050565b86868686610b1c84848484612197565b73ffffffffffffffffffffffffffffffffffffffff163373ffffffffffffffffffffffffffffffffffffffff1614610b89576040517f08c379a0000000000000000000000000000000000000000000000000000000008152600401610b8090612d0d565b60405180910390fd5b600487604051610b999190612d65565b90815260200160405180910390205f9054906101000a900460ff16610bf3576040517f08c379a0000000000000000000000000000000000000000000000000000000008152600401610bea90612deb565b60405180910390fd5b5f5b60015f3373ffffffffffffffffffffffffffffffffffffffff1673ffffffffffffffffffffffffffffffffffffffff1681526020019081526020015f2088604051610c409190612d65565b908152602001604051809103902080549050811015610e1057610d6b8760015f3373ffffffffffffffffffffffffffffffffffffffff1673ffffffffffffffffffffffffffffffffffffffff1681526020019081526020015f208a604051610ca89190612d65565b90815260200160405180910390208381548110610cc857610cc7612e09565b5b905f5260205f2090600202015f018054610ce190612e63565b80601f0160208091040260200160405190810160405280929190818152602001828054610d0d90612e63565b8015610d585780601f10610d2f57610100808354040283529160200191610d58565b820191905f5260205f20905b815481529060010190602001808311610d3b57829003601f168201915b505050505061221e90919063ffffffff16565b15610dfd578560015f3373ffffffffffffffffffffffffffffffffffffffff1673ffffffffffffffffffffffffffffffffffffffff1681526020019081526020015f2089604051610dbc9190612d65565b90815260200160405180910390208281548110610ddc57610ddb612e09565b5b905f5260205f2090600202016001019081610df7919061328b565b50610e10565b8080610e0890613135565b915050610bf5565b507f150d99b63330400fefc0e0c442b9d9d70bf987c997d4a076ae8901a0b6a5ee7c878787604051610e44939291906133a2565b60405180910390a15050505050505050505050565b84848484610e6984848484612197565b73ffffffffffffffffffffffffffffffffffffffff163373ffffffffffffffffffffffffffffffffffffffff1614610ed6576040517f08c379a0000000000000000000000000000000000000000000000000000000008152600401610ecd90612d0d565b60405180910390fd5b600485604051610ee69190612d65565b90815260200160405180910390205f9054906101000a900460ff16610f40576040517f08c379a0000000000000000000000000000000000000000000000000000000008152600401610f3790612deb565b60405180910390fd5b60015f3373ffffffffffffffffffffffffffffffffffffffff1673ffffffffffffffffffffffffffffffffffffffff1681526020019081526020015f2085604051610f8b9190612d65565b90815260200160405180910390205f610fa491906122f2565b5f5b60025f3373ffffffffffffffffffffffffffffffffffffffff1673ffffffffffffffffffffffffffffffffffffffff1681526020019081526020015f208054905081101561126a576110de8660025f3373ffffffffffffffffffffffffffffffffffffffff1673ffffffffffffffffffffffffffffffffffffffff1681526020019081526020015f20838154811061104157611040612e09565b5b905f5260205f2001805461105490612e63565b80601f016020809104026020016040519081016040528092919081815260200182805461108090612e63565b80156110cb5780601f106110a2576101008083540402835291602001916110cb565b820191905f5260205f20905b8154815290600101906020018083116110ae57829003601f168201915b505050505061221e90919063ffffffff16565b156112575760025f3373ffffffffffffffffffffffffffffffffffffffff1673ffffffffffffffffffffffffffffffffffffffff1681526020019081526020015f20600160025f3373ffffffffffffffffffffffffffffffffffffffff1673ffffffffffffffffffffffffffffffffffffffff1681526020019081526020015f208054905061116d91906133ec565b8154811061117e5761117d612e09565b5b905f5260205f200160025f3373ffffffffffffffffffffffffffffffffffffffff1673ffffffffffffffffffffffffffffffffffffffff1681526020019081526020015f2082815481106111d5576111d4612e09565b5b905f5260205f200190816111e99190613446565b5060025f3373ffffffffffffffffffffffffffffffffffffffff1673ffffffffffffffffffffffffffffffffffffffff1681526020019081526020015f208054806112375761123661352b565b5b600190038181905f5260205f20015f6112509190612313565b905561126a565b808061126290613135565b915050610fa6565b505f5b60035f3373ffffffffffffffffffffffffffffffffffffffff1673ffffffffffffffffffffffffffffffffffffffff1681526020019081526020015f2080549050811015611531576113a58660035f3373ffffffffffffffffffffffffffffffffffffffff1673ffffffffffffffffffffffffffffffffffffffff1681526020019081526020015f20838154811061130857611307612e09565b5b905f5260205f2001805461131b90612e63565b80601f016020809104026020016040519081016040528092919081815260200182805461134790612e63565b80156113925780601f1061136957610100808354040283529160200191611392565b820191905f5260205f20905b81548152906001019060200180831161137557829003601f168201915b505050505061221e90919063ffffffff16565b1561151e5760035f3373ffffffffffffffffffffffffffffffffffffffff1673ffffffffffffffffffffffffffffffffffffffff1681526020019081526020015f20600160035f3373ffffffffffffffffffffffffffffffffffffffff1673ffffffffffffffffffffffffffffffffffffffff1681526020019081526020015f208054905061143491906133ec565b8154811061144557611444612e09565b5b905f5260205f200160035f3373ffffffffffffffffffffffffffffffffffffffff1673ffffffffffffffffffffffffffffffffffffffff1681526020019081526020015f20828154811061149c5761149b612e09565b5b905f5260205f200190816114b09190613446565b5060035f3373ffffffffffffffffffffffffffffffffffffffff1673ffffffffffffffffffffffffffffffffffffffff1681526020019081526020015f208054806114fe576114fd61352b565b5b600190038181905f5260205f20015f6115179190612313565b9055611531565b808061152990613135565b91505061126d565b506004856040516115429190612d65565b90815260200160405180910390205f6101000a81549060ff02191690557fe2b0a694929960b0f6530c76ccad40d23aeb55ecc684c0e0033fcb346fe936328560405161158e9190613558565b60405180910390a1505050505050505050565b858585856115b184848484612197565b73ffffffffffffffffffffffffffffffffffffffff163373ffffffffffffffffffffffffffffffffffffffff161461161e576040517f08c379a000000000000000000000000000000000000000000000000000000000815260040161161590612d0d565b60405180910390fd5b60048660405161162e9190612d65565b90815260200160405180910390205f9054906101000a900460ff16611688576040517f08c379a000000000000000000000000000000000000000000000000000000000815260040161167f90612deb565b60405180910390fd5b5f5b60015f3373ffffffffffffffffffffffffffffffffffffffff1673ffffffffffffffffffffffffffffffffffffffff1681526020019081526020015f20876040516116d59190612d65565b908152602001604051809103902080549050811015611a3a576118008660015f3373ffffffffffffffffffffffffffffffffffffffff1673ffffffffffffffffffffffffffffffffffffffff1681526020019081526020015f208960405161173d9190612d65565b9081526020016040518091039020838154811061175d5761175c612e09565b5b905f5260205f2090600202015f01805461177690612e63565b80601f01602080910402602001604051908101604052809291908181526020018280546117a290612e63565b80156117ed5780601f106117c4576101008083540402835291602001916117ed565b820191905f5260205f20905b8154815290600101906020018083116117d057829003601f168201915b505050505061221e90919063ffffffff16565b15611a275760015f3373ffffffffffffffffffffffffffffffffffffffff1673ffffffffffffffffffffffffffffffffffffffff1681526020019081526020015f20876040516118509190612d65565b90815260200160405180910390206001805f3373ffffffffffffffffffffffffffffffffffffffff1673ffffffffffffffffffffffffffffffffffffffff1681526020019081526020015f20896040516118aa9190612d65565b9081526020016040518091039020805490506118c691906133ec565b815481106118d7576118d6612e09565b5b905f5260205f20906002020160015f3373ffffffffffffffffffffffffffffffffffffffff1673ffffffffffffffffffffffffffffffffffffffff1681526020019081526020015f208860405161192e9190612d65565b9081526020016040518091039020828154811061194e5761194d612e09565b5b905f5260205f2090600202015f8201815f01908161196c919061358d565b50600182018160010190816119819190613687565b5090505060015f3373ffffffffffffffffffffffffffffffffffffffff1673ffffffffffffffffffffffffffffffffffffffff1681526020019081526020015f20876040516119d09190612d65565b90815260200160405180910390208054806119ee576119ed61352b565b5b600190038181905f5260205f2090600202015f8082015f611a0f9190612313565b600182015f611a1e9190612350565b50509055611a3a565b8080611a3290613135565b91505061168a565b507fc23e6ca3ed0a04eb38198216e0cf104c62672150792ce15880d9695ad85011058686604051611a6c9291906131b4565b60405180910390a150505050505050505050565b86868686611a9084848484612197565b73ffffffffffffffffffffffffffffffffffffffff163373ffffffffffffffffffffffffffffffffffffffff1614611afd576040517f08c379a0000000000000000000000000000000000000000000000000000000008152600401611af490612d0d565b60405180910390fd5b5f60015f3373ffffffffffffffffffffffffffffffffffffffff1673ffffffffffffffffffffffffffffffffffffffff1681526020019081526020015f2088604051611b499190612d65565b90815260200160405180910390208054905003611bce5760025f3373ffffffffffffffffffffffffffffffffffffffff1673ffffffffffffffffffffffffffffffffffffffff1681526020019081526020015f2087908060018154018082558091505060019003905f5260205f20015f909190919091509081611bcc9190613039565b505b600487604051611bde9190612d65565b90815260200160405180910390205f9054906101000a900460ff16611ca1576001600488604051611c0f9190612d65565b90815260200160405180910390205f6101000a81548160ff02191690831515021790555060035f3373ffffffffffffffffffffffffffffffffffffffff1673ffffffffffffffffffffffffffffffffffffffff1681526020019081526020015f2087908060018154018082558091505060019003905f5260205f20015f909190919091509081611c9f9190613039565b505b60015f3373ffffffffffffffffffffffffffffffffffffffff1673ffffffffffffffffffffffffffffffffffffffff1681526020019081526020015f2087604051611cec9190612d65565b9081526020016040518091039020604051806040016040528088815260200187815250908060018154018082558091505060019003905f5260205f2090600202015f909190919091505f820151815f019081611d489190613039565b506020820151816001019081611d5e919061328b565b5050507ffdf162c8034259d1d8db474d9f7964b3292d5cee01218ce162eab07ee3d513af878787604051611d94939291906133a2565b60405180910390a15050505050505050505050565b606084848484611dbb84848484612197565b73ffffffffffffffffffffffffffffffffffffffff163373ffffffffffffffffffffffffffffffffffffffff1614611e28576040517f08c379a0000000000000000000000000000000000000000000000000000000008152600401611e1f90612d0d565b60405180910390fd5b60025f3373ffffffffffffffffffffffffffffffffffffffff1673ffffffffffffffffffffffffffffffffffffffff1681526020019081526020015f20805480602002602001604051908101604052809291908181526020015f905b82821015611f2c578382905f5260205f20018054611ea190612e63565b80601f0160208091040260200160405190810160405280929190818152602001828054611ecd90612e63565b8015611f185780601f10611eef57610100808354040283529160200191611f18565b820191905f5260205f20905b815481529060010190602001808311611efb57829003601f168201915b505050505081526020019060010190611e84565b50505050945050505050949350505050565b606085858585611f5084848484612197565b73ffffffffffffffffffffffffffffffffffffffff163373ffffffffffffffffffffffffffffffffffffffff1614611fbd576040517f08c379a0000000000000000000000000000000000000000000000000000000008152600401611fb490612d0d565b60405180910390fd5b60015f3373ffffffffffffffffffffffffffffffffffffffff1673ffffffffffffffffffffffffffffffffffffffff1681526020019081526020015f20866040516120089190612d65565b9081526020016040518091039020805480602002602001604051908101604052809291908181526020015f905b82821015612184578382905f5260205f2090600202016040518060400160405290815f8201805461206590612e63565b80601f016020809104026020016040519081016040528092919081815260200182805461209190612e63565b80156120dc5780601f106120b3576101008083540402835291602001916120dc565b820191905f5260205f20905b8154815290600101906020018083116120bf57829003601f168201915b505050505081526020016001820180546120f590612e63565b80601f016020809104026020016040519081016040528092919081815260200182805461212190612e63565b801561216c5780601f106121435761010080835404028352916020019161216c565b820191905f5260205f20905b81548152906001019060200180831161214f57829003601f168201915b50505050508152505081526020019060010190612035565b5050505094505050505095945050505050565b5f80856040516020016121aa91906137d6565b6040516020818303038152906040528051906020012090505f6001828787876040515f81526020016040526040516121e59493929190613819565b6020604051602081039080840390855afa158015612205573d5f803e3d5ffd5b5050506020604051035190508092505050949350505050565b5f816040516020016122309190612d65565b60405160208183030381529060405280519060200120836040516020016122579190612d65565b6040516020818303038152906040528051906020012014905092915050565b828054828255905f5260205f209060020281019282156122e1575f5260205f209160020282015b828111156122e05782825f8201815f0190816122b9919061358d565b50600182018160010190816122ce9190613687565b5050509160020191906002019061229d565b5b5090506122ee919061238d565b5090565b5080545f8255600202905f5260205f2090810190612310919061238d565b50565b50805461231f90612e63565b5f825580601f10612330575061234d565b601f0160209004905f5260205f209081019061234c91906123c1565b5b50565b50805461235c90612e63565b5f825580601f1061236d575061238a565b601f0160209004905f5260205f209081019061238991906123c1565b5b50565b5b808211156123bd575f8082015f6123a59190612313565b600182015f6123b49190612350565b5060020161238e565b5090565b5b808211156123d8575f815f9055506001016123c2565b5090565b5f604051905090565b5f80fd5b5f80fd5b5f819050919050565b6123ff816123ed565b8114612409575f80fd5b50565b5f8135905061241a816123f6565b92915050565b5f60ff82169050919050565b61243581612420565b811461243f575f80fd5b50565b5f813590506124508161242c565b92915050565b5f80fd5b5f80fd5b5f601f19601f8301169050919050565b7f4e487b71000000000000000000000000000000000000000000000000000000005f52604160045260245ffd5b6124a48261245e565b810181811067ffffffffffffffff821117156124c3576124c261246e565b5b80604052505050565b5f6124d56123dc565b90506124e1828261249b565b919050565b5f67ffffffffffffffff821115612500576124ff61246e565b5b6125098261245e565b9050602081019050919050565b828183375f83830152505050565b5f612536612531846124e6565b6124cc565b9050828152602081018484840111156125525761255161245a565b5b61255d848285612516565b509392505050565b5f82601f83011261257957612578612456565b5b8135612589848260208601612524565b91505092915050565b5f805f805f8060c087890312156125ac576125ab6123e5565b5b5f6125b989828a0161240c565b96505060206125ca89828a01612442565b95505060406125db89828a0161240c565b94505060606125ec89828a0161240c565b935050608087013567ffffffffffffffff81111561260d5761260c6123e9565b5b61261989828a01612565565b92505060a087013567ffffffffffffffff81111561263a576126396123e9565b5b61264689828a01612565565b9150509295509295509295565b5f805f805f805f60e0888a03121561266e5761266d6123e5565b5b5f61267b8a828b0161240c565b975050602061268c8a828b01612442565b965050604061269d8a828b0161240c565b95505060606126ae8a828b0161240c565b945050608088013567ffffffffffffffff8111156126cf576126ce6123e9565b5b6126db8a828b01612565565b93505060a088013567ffffffffffffffff8111156126fc576126fb6123e9565b5b6127088a828b01612565565b92505060c088013567ffffffffffffffff811115612729576127286123e9565b5b6127358a828b01612565565b91505092959891949750929550565b5f67ffffffffffffffff82111561275e5761275d61246e565b5b6127678261245e565b9050602081019050919050565b5f61278661278184612744565b6124cc565b9050828152602081018484840111156127a2576127a161245a565b5b6127ad848285612516565b509392505050565b5f82601f8301126127c9576127c8612456565b5b81356127d9848260208601612774565b91505092915050565b5f805f805f805f60e0888a0312156127fd576127fc6123e5565b5b5f61280a8a828b0161240c565b975050602061281b8a828b01612442565b965050604061282c8a828b0161240c565b955050606061283d8a828b0161240c565b945050608088013567ffffffffffffffff81111561285e5761285d6123e9565b5b61286a8a828b01612565565b93505060a088013567ffffffffffffffff81111561288b5761288a6123e9565b5b6128978a828b01612565565b92505060c088013567ffffffffffffffff8111156128b8576128b76123e9565b5b6128c48a828b016127b5565b91505092959891949750929550565b5f805f805f60a086880312156128ec576128eb6123e5565b5b5f6128f98882890161240c565b955050602061290a88828901612442565b945050604061291b8882890161240c565b935050606061292c8882890161240c565b925050608086013567ffffffffffffffff81111561294d5761294c6123e9565b5b61295988828901612565565b9150509295509295909350565b5f805f806080858703121561297e5761297d6123e5565b5b5f61298b8782880161240c565b945050602061299c87828801612442565b93505060406129ad8782880161240c565b92505060606129be8782880161240c565b91505092959194509250565b5f81519050919050565b5f82825260208201905092915050565b5f819050602082019050919050565b5f81519050919050565b5f82825260208201905092915050565b5f5b83811015612a2a578082015181840152602081019050612a0f565b5f8484015250505050565b5f612a3f826129f3565b612a4981856129fd565b9350612a59818560208601612a0d565b612a628161245e565b840191505092915050565b5f612a788383612a35565b905092915050565b5f602082019050919050565b5f612a96826129ca565b612aa081856129d4565b935083602082028501612ab2856129e4565b805f5b85811015612aed5784840389528151612ace8582612a6d565b9450612ad983612a80565b925060208a01995050600181019050612ab5565b50829750879550505050505092915050565b5f6020820190508181035f830152612b178184612a8c565b905092915050565b5f81519050919050565b5f82825260208201905092915050565b5f819050602082019050919050565b5f81519050919050565b5f82825260208201905092915050565b5f612b6c82612b48565b612b768185612b52565b9350612b86818560208601612a0d565b612b8f8161245e565b840191505092915050565b5f604083015f8301518482035f860152612bb48282612a35565b91505060208301518482036020860152612bce8282612b62565b9150508091505092915050565b5f612be68383612b9a565b905092915050565b5f602082019050919050565b5f612c0482612b1f565b612c0e8185612b29565b935083602082028501612c2085612b39565b805f5b85811015612c5b5784840389528151612c3c8582612bdb565b9450612c4783612bee565b925060208a01995050600181019050612c23565b50829750879550505050505092915050565b5f6020820190508181035f830152612c858184612bfa565b905092915050565b5f82825260208201905092915050565b7f596f752063616e6e6f74206368616e676520736f6d656f6e6520656c736527735f8201527f2073746174650000000000000000000000000000000000000000000000000000602082015250565b5f612cf7602683612c8d565b9150612d0282612c9d565b604082019050919050565b5f6020820190508181035f830152612d2481612ceb565b9050919050565b5f81905092915050565b5f612d3f826129f3565b612d498185612d2b565b9350612d59818560208601612a0d565b80840191505092915050565b5f612d708284612d35565b915081905092915050565b7f5369746520776974682074686973206e616d6520646f6573206e6f74206578695f8201527f7374000000000000000000000000000000000000000000000000000000000000602082015250565b5f612dd5602283612c8d565b9150612de082612d7b565b604082019050919050565b5f6020820190508181035f830152612e0281612dc9565b9050919050565b7f4e487b71000000000000000000000000000000000000000000000000000000005f52603260045260245ffd5b7f4e487b71000000000000000000000000000000000000000000000000000000005f52602260045260245ffd5b5f6002820490506001821680612e7a57607f821691505b602082108103612e8d57612e8c612e36565b5b50919050565b5f819050815f5260205f209050919050565b5f6020601f8301049050919050565b5f82821b905092915050565b5f60088302612eef7fffffffffffffffffffffffffffffffffffffffffffffffffffffffffffffffff82612eb4565b612ef98683612eb4565b95508019841693508086168417925050509392505050565b5f819050919050565b5f819050919050565b5f612f3d612f38612f3384612f11565b612f1a565b612f11565b9050919050565b5f819050919050565b612f5683612f23565b612f6a612f6282612f44565b848454612ec0565b825550505050565b5f90565b612f7e612f72565b612f89818484612f4d565b505050565b5b81811015612fac57612fa15f82612f76565b600181019050612f8f565b5050565b601f821115612ff157612fc281612e93565b612fcb84612ea5565b81016020851015612fda578190505b612fee612fe685612ea5565b830182612f8e565b50505b505050565b5f82821c905092915050565b5f6130115f1984600802612ff6565b1980831691505092915050565b5f6130298383613002565b9150826002028217905092915050565b613042826129f3565b67ffffffffffffffff81111561305b5761305a61246e565b5b6130658254612e63565b613070828285612fb0565b5f60209050601f8311600181146130a1575f841561308f578287015190505b613099858261301e565b865550613100565b601f1984166130af86612e93565b5f5b828110156130d6578489015182556001820191506020850194506020810190506130b1565b868310156130f357848901516130ef601f891682613002565b8355505b6001600288020188555050505b505050505050565b7f4e487b71000000000000000000000000000000000000000000000000000000005f52601160045260245ffd5b5f61313f82612f11565b91507fffffffffffffffffffffffffffffffffffffffffffffffffffffffffffffffff820361317157613170613108565b5b600182019050919050565b5f613186826129f3565b6131908185612c8d565b93506131a0818560208601612a0d565b6131a98161245e565b840191505092915050565b5f6040820190508181035f8301526131cc818561317c565b905081810360208301526131e0818461317c565b90509392505050565b5f6060820190508181035f830152613201818661317c565b90508181036020830152613215818561317c565b90508181036040830152613229818461317c565b9050949350505050565b5f819050815f5260205f209050919050565b601f8211156132865761325781613233565b61326084612ea5565b8101602085101561326f578190505b61328361327b85612ea5565b830182612f8e565b50505b505050565b61329482612b48565b67ffffffffffffffff8111156132ad576132ac61246e565b5b6132b78254612e63565b6132c2828285613245565b5f60209050601f8311600181146132f3575f84156132e1578287015190505b6132eb858261301e565b865550613352565b601f19841661330186613233565b5f5b8281101561332857848901518255600182019150602085019450602081019050613303565b868310156133455784890151613341601f891682613002565b8355505b6001600288020188555050505b505050505050565b5f82825260208201905092915050565b5f61337482612b48565b61337e818561335a565b935061338e818560208601612a0d565b6133978161245e565b840191505092915050565b5f6060820190508181035f8301526133ba818661317c565b905081810360208301526133ce818561317c565b905081810360408301526133e2818461336a565b9050949350505050565b5f6133f682612f11565b915061340183612f11565b925082820390508181111561341957613418613108565b5b92915050565b5f8154905061342d81612e63565b9050919050565b5f819050815f5260205f209050919050565b818103613454575050613529565b61345d8261341f565b67ffffffffffffffff8111156134765761347561246e565b5b6134808254612e63565b61348b828285612fb0565b5f601f8311600181146134b8575f84156134a6578287015490505b6134b0858261301e565b865550613522565b601f1984166134c687613434565b96506134d186612e93565b5f5b828110156134f8578489015482556001820191506001850194506020810190506134d3565b868310156135155784890154613511601f891682613002565b8355505b6001600288020188555050505b5050505050505b565b7f4e487b71000000000000000000000000000000000000000000000000000000005f52603160045260245ffd5b5f6020820190508181035f830152613570818461317c565b905092915050565b5f8154905061358681612e63565b9050919050565b81810361359b575050613670565b6135a482613578565b67ffffffffffffffff8111156135bd576135bc61246e565b5b6135c78254612e63565b6135d2828285612fb0565b5f601f8311600181146135ff575f84156135ed578287015490505b6135f7858261301e565b865550613669565b601f19841661360d87612e93565b965061361886612e93565b5f5b8281101561363f5784890154825560018201915060018501945060208101905061361a565b8683101561365c5784890154613658601f891682613002565b8355505b6001600288020188555050505b5050505050505b565b5f8154905061368081612e63565b9050919050565b81810361369557505061376a565b61369e82613672565b67ffffffffffffffff8111156136b7576136b661246e565b5b6136c18254612e63565b6136cc828285613245565b5f601f8311600181146136f9575f84156136e7578287015490505b6136f1858261301e565b865550613763565b601f19841661370787613233565b965061371286613233565b5f5b8281101561373957848901548255600182019150600185019450602081019050613714565b868310156137565784890154613752601f891682613002565b8355505b6001600288020188555050505b5050505050505b565b7f19457468657265756d205369676e6564204d6573736167653a0a3332000000005f82015250565b5f6137a0601c83612d2b565b91506137ab8261376c565b601c82019050919050565b5f819050919050565b6137d06137cb826123ed565b6137b6565b82525050565b5f6137e082613794565b91506137ec82846137bf565b60208201915081905092915050565b613804816123ed565b82525050565b61381381612420565b82525050565b5f60808201905061382c5f8301876137fb565b613839602083018661380a565b61384660408301856137fb565b61385360608301846137fb565b9594505050505056fea2646970667358221220b5e0010da4d9640d2bebdea319e5866d461ce0f897e6a424b11ff73fddab9d4064736f6c63430008150033",
  "immutableReferences": {},
  "source": "// SPDX-License-Identifier: UNLICENSED\r\npragma solidity ^0.8.9;\r\n\r\nimport \"./MyStringLibrary.sol\";\r\n\r\ncontract Auth {\r\n    using MyStringLibrary for string;\r\n\r\n    struct User {\r\n        string login;\r\n        bytes password;\r\n    }\r\n\r\n    address owner;\r\n\r\n    mapping(address => mapping(string => User[])) users;\r\n    mapping(address => string[]) sites;\r\n    mapping(address => string[]) usersSites;\r\n    mapping(string => bool) siteExist;\r\n\r\n    event NewUser(string site, string login, bytes password);\r\n    event ChangeSite(string oldSiteName, string newSiteName);\r\n    event ChangeLogin(string site, string oldLogin, string newLogin);\r\n    event ChangePassword(string site, string login, bytes newPassword);\r\n    event DeleteSite(string site);\r\n    event DeleteAccount(string site, string login);\r\n\r\n    modifier isAuth(\r\n        bytes32 message,\r\n        uint8 v,\r\n        bytes32 r,\r\n        bytes32 s\r\n    ) {\r\n        require(\r\n            msg.sender == verifySignature(message, v, r, s),\r\n            \"You cannot change someone else's state\"\r\n        );\r\n        _;\r\n    }\r\n\r\n    constructor() {\r\n        owner = msg.sender;\r\n    }\r\n\r\n    function verifySignature(\r\n        bytes32 message,\r\n        uint8 v,\r\n        bytes32 r,\r\n        bytes32 s\r\n    ) internal pure returns (address) {\r\n        bytes32 signature = keccak256(\r\n            abi.encodePacked(\"\\x19Ethereum Signed Message:\\n32\", message)\r\n        );\r\n        address signer = ecrecover(signature, v, r, s);\r\n        return signer;\r\n    }\r\n\r\n    function changeSiteName(\r\n        bytes32 message,\r\n        uint8 v,\r\n        bytes32 r,\r\n        bytes32 s,\r\n        string memory oldSiteName,\r\n        string memory newSiteName\r\n    ) external isAuth(message, v, r, s) {\r\n        require(siteExist[oldSiteName], \"Site with this name does not exist\");\r\n\r\n        // Move users to new site name\r\n        users[msg.sender][newSiteName] = users[msg.sender][oldSiteName];\r\n        delete users[msg.sender][oldSiteName];\r\n\r\n        // Update site mappings\r\n        for (uint i = 0; i < sites[msg.sender].length; i++) {\r\n            if (sites[msg.sender][i].isEqual(oldSiteName)) {\r\n                sites[msg.sender][i] = newSiteName;\r\n                break;\r\n            }\r\n        }\r\n\r\n        for (uint i = 0; i < usersSites[msg.sender].length; i++) {\r\n            if (usersSites[msg.sender][i].isEqual(oldSiteName)) {\r\n                usersSites[msg.sender][i] = newSiteName;\r\n                break;\r\n            }\r\n        }\r\n\r\n        delete siteExist[oldSiteName];\r\n        siteExist[newSiteName] = true;\r\n\r\n        emit ChangeSite(oldSiteName, newSiteName);\r\n    }\r\n\r\n    function deleteSiteInfo(\r\n        bytes32 message,\r\n        uint8 v,\r\n        bytes32 r,\r\n        bytes32 s,\r\n        string memory site\r\n    ) external isAuth(message, v, r, s) {\r\n        require(siteExist[site], \"Site with this name does not exist\");\r\n\r\n        delete users[msg.sender][site];\r\n\r\n        for (uint i = 0; i < sites[msg.sender].length; i++) {\r\n            if (sites[msg.sender][i].isEqual(site)) {\r\n                sites[msg.sender][i] = sites[msg.sender][sites[msg.sender].length - 1];\r\n                sites[msg.sender].pop();\r\n                break;\r\n            }\r\n        }\r\n\r\n        for (uint i = 0; i < usersSites[msg.sender].length; i++) {\r\n            if (usersSites[msg.sender][i].isEqual(site)) {\r\n                usersSites[msg.sender][i] = usersSites[msg.sender][usersSites[msg.sender].length - 1];\r\n                usersSites[msg.sender].pop();\r\n                break;\r\n            }\r\n        }\r\n\r\n        delete siteExist[site];\r\n\r\n        emit DeleteSite(site);\r\n    }\r\n\r\n    function deleteAccountInfo(\r\n        bytes32 message,\r\n        uint8 v,\r\n        bytes32 r,\r\n        bytes32 s,\r\n        string memory site,\r\n        string memory login\r\n    ) external isAuth(message, v, r, s) {\r\n        require(siteExist[site], \"Site with this name does not exist\");\r\n\r\n        for (uint i = 0; i < users[msg.sender][site].length; i++) {\r\n            if (users[msg.sender][site][i].login.isEqual(login)) {\r\n                users[msg.sender][site][i] = users[msg.sender][site][users[msg.sender][site].length - 1];\r\n                users[msg.sender][site].pop();\r\n                break;\r\n            }\r\n        }\r\n\r\n        emit DeleteAccount(site, login);\r\n    }\r\n\r\n    function changeSiteLogin(\r\n        bytes32 message,\r\n        uint8 v,\r\n        bytes32 r,\r\n        bytes32 s,\r\n        string memory site,\r\n        string memory oldLogin,\r\n        string memory newLogin\r\n    ) external isAuth(message, v, r, s) {\r\n        require(siteExist[site], \"Site with this name does not exist\");\r\n\r\n        for (uint i = 0; i < users[msg.sender][site].length; i++) {\r\n            if (users[msg.sender][site][i].login.isEqual(oldLogin)) {\r\n                users[msg.sender][site][i].login = newLogin;\r\n                break;\r\n            }\r\n        }\r\n\r\n        emit ChangeLogin(site, oldLogin, newLogin);\r\n    }\r\n\r\n    function changeSitePassword(\r\n        bytes32 message,\r\n        uint8 v,\r\n        bytes32 r,\r\n        bytes32 s,\r\n        string memory site,\r\n        string memory login,\r\n        bytes memory newPassword\r\n    ) external isAuth(message, v, r, s) {\r\n        require(siteExist[site], \"Site with this name does not exist\");\r\n\r\n        for (uint i = 0; i < users[msg.sender][site].length; i++) {\r\n            if (users[msg.sender][site][i].login.isEqual(login)) {\r\n                users[msg.sender][site][i].password = newPassword;\r\n                break;\r\n            }\r\n        }\r\n\r\n        emit ChangePassword(site, login, newPassword);\r\n    }\r\n\r\n    function addUserToSite(\r\n        bytes32 message,\r\n        uint8 v,\r\n        bytes32 r,\r\n        bytes32 s,\r\n        string memory site,\r\n        string memory _login,\r\n        bytes memory _password\r\n    ) external isAuth(message, v, r, s) {\r\n        if (users[msg.sender][site].length == 0) {\r\n            sites[msg.sender].push(site);\r\n        }\r\n\r\n        if (!siteExist[site]) {\r\n            siteExist[site] = true;\r\n            usersSites[msg.sender].push(site);\r\n        }\r\n\r\n        users[msg.sender][site].push(User(_login, _password));\r\n\r\n        emit NewUser(site, _login, _password);\r\n    }\r\n\r\n    function getSites(\r\n        bytes32 message,\r\n        uint8 v,\r\n        bytes32 r,\r\n        bytes32 s\r\n    ) public view isAuth(message, v, r, s) returns (string[] memory) {\r\n        return sites[msg.sender];\r\n    }\r\n\r\n    function getLogins(\r\n        bytes32 message,\r\n        uint8 v,\r\n        bytes32 r,\r\n        bytes32 s,\r\n        string memory site\r\n    ) public view isAuth(message, v, r, s) returns (User[] memory) {\r\n        return users[msg.sender][site];\r\n    }\r\n}\r\n",
  "sourcePath": "C:\\Users\\iapar\\AuthProject\\contracts\\Auth.sol",
  "compiler": {
    "name": "solc",
    "version": "0.8.21+commit.d9974bed.Emscripten.clang"
  },
  "schemaVersion": "3.4.16",
  "updatedAt": "2024-12-28T21:42:06.352Z",
  "devdoc": {
    "kind": "dev",
    "methods": {},
    "version": 1
  },
  "userdoc": {
    "kind": "user",
    "methods": {},
    "version": 1
  }
}